:100000000C945D000C9485000C9485000C94850084
:100010000C9485000C9485000C9485000C9485004C
:100020000C9485000C9485000C9485000C9485003C
:100030000C9485000C9485000C9485000C9485002C
:100040000C9469010C9485000C94E3030C94260431
:100050000C9485000C9485000C9485000C9485000C
:100060000C9485000C94850000000007000201003C
:100070000003040600000000000000000102040864
:100080001020408001020408102001020408102002
:10009000040404040404040402020202020203032E
:1000A0000303030300000000250028002B000000CC
:1000B0000000240027002A00E20411241FBECFEF15
:1000C000D8E0DEBFCDBF11E0A0E0B1E0ECE2FEE0A1
:1000D00002C005900D92A831B107D9F711E0A8E14F
:1000E000B1E001C01D92A53DB107E1F710E0CAEBF8
:1000F000D0E004C02297FE010E941007C83BD10740
:10010000C9F70E947F050C9414070C94000040E886
:1001100055E260E070E08BE291E00E94610461E0F2
:100120008AE00E94DC0261E08BE00E94DC0261E078
:1001300089E00E94DC0261E082E00C94DC02AF9274
:10014000BF92CF92DF92EF92FF920F931F9383E1C2
:100150000E94370228E833E1DC010E949C062FEF61
:1001600033E040E050E00E94D506CA01B901209377
:100170001E0130931F0140932001509321012093D1
:100180001A0130931B0140931C0150931D011F92D3
:100190001F921F922FEF2F93A12CB12C650118E80D
:1001A000E12E13E1F12E00E010E020E030E0A901A3
:1001B0000E9438050F900F900F900F906F3F7105C0
:1001C00019F014F06FEF70E077FF02C060E070E0AC
:1001D000709319016093180161E082E00E94150399
:1001E00060911801709119018AE00E9454026FEF2A
:1001F00070E08091180190911901681B790B8BE0D8
:100200000E94540265E071E08BE291E00E94CA0511
:1002100040911A0150911B0160911C0170911D01C8
:100220002AE030E08BE291E00E94520665E071E046
:100230008BE291E00E94E70564E170E080E090E0ED
:100240001F910F91FF90EF90DF90CF90BF90AF90F4
:100250000C94D60161E089E00E94150360E070E033
:100260008AE00E94540260E070E08BE00E94540239
:1002700064E670E080E090E00E94D60160E089E0F2
:100280000E94150361E070E08AE00E94540260E081
:1002900070E08BE00E94540264E670E080E090E041
:1002A0000C94D6018BE291E00E947803813619F01C
:1002B000823631F008950E949F000E945201FBCFC8
:1002C0000E942A010E945201FBCF0E942A010C9435
:1002D00052011F920F920FB60F9211242F933F934A
:1002E0008F939F93AF93BF938091230190912401AB
:1002F000A0912501B09126013091220123E0230F26
:100300002D3720F40196A11DB11D05C026E8230F4D
:100310000296A11DB11D2093220180932301909389
:100320002401A0932501B09326018091270190918B
:100330002801A0912901B0912A010196A11DB11DAA
:100340008093270190932801A0932901B0932A015B
:10035000BF91AF919F918F913F912F910F900FBEC1
:100360000F901F9018953FB7F894809127019091B6
:100370002801A0912901B0912A0126B5A89B05C0AA
:100380002F3F19F00196A11DB11D3FBF6627782FA1
:10039000892F9A2F620F711D811D911D42E0660FFA
:1003A000771F881F991F4A95D1F70895CF92DF9242
:1003B000EF92FF92CF93DF936B017C010E94B30118
:1003C000EB01C114D104E104F10479F00E94B301FE
:1003D0006C1B7D0B683E7340A0F381E0C81AD10806
:1003E000E108F108C851DC4FECCFDF91CF91FF90CD
:1003F000EF90DF90CF900895789484B5826084BDAB
:1004000084B5816084BD85B5826085BD85B5816018
:1004100085BDEEE6F0E0808181608083E1E8F0E078
:100420001082808182608083808181608083E0E8A7
:10043000F0E0808181608083E1EBF0E08081846086
:100440008083E0EBF0E0808181608083EAE7F0E088
:1004500080818460808380818260808380818160EC
:1004600080838081806880831092C10008958E30DF
:1004700008F08E5087702091040190E4299F90012C
:100480001124822B80937C0080917A008064809379
:100490007A0080917A0086FDFCCF809178002091CF
:1004A000790090E0922B08951F93CF93DF93182F3C
:1004B000EB0161E00E94DC02209711F460E004C0CF
:1004C000CF3FD10539F461E0812FDF91CF911F91AA
:1004D0000C941503E12FF0E0E859FF4FE491E3306D
:1004E000F9F048F4E130B9F0E230A1F584B580626A
:1004F00084BDC8BD34C0E630E9F0E73019F1E4301E
:1005000049F580918000806280938000D0938B00B9
:10051000C0938A0024C084B5806884BDC7BD1FC055
:1005200080918000806880938000D0938900C09380
:10053000880015C08091B00080688093B000C0939F
:10054000B3000DC08091B00080628093B000C09372
:10055000B40005C0C038D1050CF0B5CFAFCFDF91E6
:10056000CF911F910895833081F028F4813099F064
:100570008230A1F008958630A9F08730B9F0843038
:10058000D1F4809180008F7D03C0809180008F77AF
:1005900080938000089584B58F7702C084B58F7DE5
:1005A00084BD08958091B0008F7703C08091B00022
:1005B0008F7D8093B0000895CF93DF9390E0FC018E
:1005C000E458FF4F2491FC01E057FF4F84918823AA
:1005D00049F190E0880F991FFC01E255FF4FA5916A
:1005E000B4918C559F4FFC01C591D4919FB7611177
:1005F00008C0F8948C91209582238C938881822363
:100600000AC0623051F4F8948C91322F30958323D4
:100610008C938881822B888304C0F8948C91822BE0
:100620008C939FBFDF91CF9108950F931F93CF932A
:10063000DF931F92CDB7DEB7282F30E0F901E859DC
:10064000FF4F8491F901E458FF4F1491F901E057ED
:10065000FF4F04910023C9F0882321F069830E9491
:10066000B3026981E02FF0E0EE0FFF1FEC55FF4F62
:10067000A591B4919FB7F8948C91611103C0109526
:10068000812301C0812B8C939FBF0F90DF91CF916D
:100690001F910F910895FC0124853585F901E05CD7
:1006A000FF4F80819181F901EE5BFF4F2081318105
:1006B000821B930B8F7399270895FC018485958580
:1006C000FC01E05CFF4F40815181FC01EE5BFF4F7C
:1006D000208131814217530741F00190F081E02DD4
:1006E000E80FF91F808190E008958FEF9FEF089544
:1006F000FC0184859585FC01E05CFF4F40815181C0
:10070000FC01EE5BFF4F208131814217530779F0E6
:10071000A081B181A80FB91F8C91208131812F5FF9
:100720003F4F2F7333273183208390E008958FEF5D
:100730009FEF0895FC0181A1882329F0A489B58940
:100740008C9186FFFBCF11A20895CF93DF93FC011C
:1007500026853785D901A05CBF4F8D919C9111975B
:1007600001968F739927E901CE5BDF4F488159814C
:1007700084179507D9F30D90BC91A02DA20FB31F3C
:100780006C93A685B785A05CBF4F11969C938E9302
:10079000A689B7892C9181E090E0078C02C0880F70
:1007A000991F0A94E2F7282B2C9381E081A30488F7
:1007B000F589E02D80818064808381E090E0DF9185
:1007C000CF91089508951F920F920FB60F921124A2
:1007D0002F933F934F938F939F93EF93FF9380912A
:1007E000C00082FD1CC04091C6008091D101909153
:1007F000D20101968F7399272091D3013091D401B2
:100800008217930771F0E091D101F091D201EF5678
:10081000FE4F40839093D2018093D10102C080911A
:10082000C600FF91EF919F918F914F913F912F9132
:100830000F900FBE0F901F9018958BE291E00E94D1
:100840004B03892B11F00C94E20308951F920F9231
:100850000FB60F9211242F933F938F939F93EF9393
:10086000FF9320918D0130918E0180918F019091A5
:1008700090012817390731F48091C1008F7D809352
:10088000C10014C0E0918F01F0919001E35BFE4F35
:10089000208180918F019091900101968F7399270B
:1008A0009093900180938F012093C600FF91EF9168
:1008B0009F918F913F912F910F900FBE0F901F909E
:1008C0001895CF92DF92EF92FF92CF93DF93EC01D6
:1008D0006A017B01411581EE580761057105F9F048
:1008E000EC89FD8981E090E008A002C0880F991F83
:1008F0000A94E2F7808360E079E08DE390E0A7015D
:1009000096010E94B30621503109410951095695BB
:10091000479537952795211580E1380798F0EC89A0
:10092000FD89108260E874E88EE190E0A7019601ED
:100930000E94B30621503109410951095695479546
:1009400037952795E889F9893083EA89FB892083DF
:1009500019A2EE89FF89408181E090E09C010C8C16
:1009600002C0220F331F0A94E2F7422B4083EE8924
:10097000FF8940819C010D8C02C0220F331F0A9415
:10098000E2F7422B4083EE89FF8940819C010E8C67
:1009900002C0220F331F0A94E2F7422B4083EE89F4
:1009A000FF8920810F8C02C0880F991F0A94E2F7FB
:1009B000809582238083DF91CF91FF90EF90DF902D
:1009C000CF90089510922E0110922D0188EE93E0A1
:1009D000A0E0B0E080932F0190933001A09331010B
:1009E000B09332018BE091E090932C0180932B0126
:1009F00081E991E090933801809337018DE491E093
:100A000090933A018093390185EC90E090933C01FA
:100A100080933B0184EC90E090933E0180933D01F4
:100A200080EC90E09093400180933F0181EC90E056
:100A3000909342018093410182EC90E090934401B5
:100A40008093430186EC90E09093460180934501AA
:100A500084E08093470183E08093480187E080939E
:100A6000490185E080934A0181E080934B0108951C
:100A70004F925F926F927F92AF92BF92CF92DF922E
:100A8000EF92FF920F931F93CF93DF93CDB7DEB713
:100A900029013A01621B730B840B950B29893A8952
:100AA0004B895C892A193B094C095D09298B3A8BD2
:100AB0004B8B5C8B9B01AC0169897A898B899C8902
:100AC0000E94A306E418F50806091709A801970172
:100AD0000E94D5062A0D3B1D4C1D5D1DCA01B901A2
:100AE000DF91CF911F910F91FF90EF90DF90CF900A
:100AF000BF90AF907F906F905F904F9008950E944D
:100B0000FC010E948700CDE1D4E00E94650120979E
:100B1000E1F30E941D04F9CFCF92DF92EF92FF9292
:100B20000F931F93CF93DF936C017A01EB01E60ED5
:100B3000F71E00E010E0CE15DF0561F06991D601E7
:100B4000ED91FC910190F081E02DC6010995080F0F
:100B5000191FF1CFC801DF91CF911F910F91FF9025
:100B6000EF90DF90CF9008956115710581F0DB0162
:100B70000D900020E9F7AD0141505109461B570B7C
:100B8000DC01ED91FC910280F381E02D099480E07D
:100B900090E008950C94B405DC01ED91FC91019076
:100BA000F081E02D09940F931F93CF93DF93EC0115
:100BB0006DE00E94CC058C016AE0CE010E94CC055C
:100BC000800F911FDF91CF911F910F9108950F9387
:100BD0001F93CF93DF93EC010E94B4058C01CE01EB
:100BE0000E94D305800F911FDF91CF911F910F912C
:100BF00008958F929F92AF92BF92CF92DF92EF9221
:100C0000FF920F931F93CF93DF93CDB7DEB7A197DA
:100C10000FB6F894DEBF0FBECDBF7C01C42EE52F0A
:100C2000CB01D22E19A221E02D1510F02AE0D22EF0
:100C30008E010F5D1F4F8D2C912CA12CB12C6C2D92
:100C40007E2FA50194010E94B3068C2DD29E80199F
:100C50001124015011098A3014F4805D01C0895CAF
:100C6000F8018083211531054105510521F0C22E7F
:100C7000E32FCA01E4CFB801C7010E94B405A196D1
:100C80000FB6F894DEBF0FBECDBFDF91CF911F919D
:100C90000F91FF90EF90DF90CF90BF90AF909F901B
:100CA0008F900895CF92DF92EF92FF920F931F9350
:100CB000CF93DF93EC016A017B012115310579F4B3
:100CC000E881F9810190F081E02D642FDF91CF91CF
:100CD0001F910F91FF90EF90DF90CF9009942A30F1
:100CE0003105E9F477FF1AC06DE20E94CC058C0152
:100CF00044275527BA014C195D096E097F092AE07E
:100D0000CE010E94F905800F911FDF91CF911F91B5
:100D10000F91FF90EF90DF90CF9008952AE0B701F8
:100D2000A601CE01DF91CF911F910F91FF90EF901F
:100D3000DF90CF900C94F9050E94F406B7FF089558
:100D4000821B930B0895DB018F939F930E940307EF
:100D5000BF91AF91A29F800D911DA39F900DB29F57
:100D6000900D11240895A1E21A2EAA1BBB1BFD01B0
:100D70000DC0AA1FBB1FEE1FFF1FA217B307E4077A
:100D8000F50720F0A21BB30BE40BF50B661F771FD2
:100D9000881F991F1A9469F76095709580959095B2
:100DA0009B01AC01BD01CF010895052E97FB1EF4F8
:100DB00000940E94EC0657FD07D00E94B30607FC82
:100DC00003D04EF40C94EC06509540953095219547
:100DD0003F4F4F4F5F4F0895909580957095619567
:100DE0007F4F8F4F9F4F0895A29FB001B39FC001C7
:100DF000A39F700D811D1124911DB29F700D811D47
:100E00001124911D08950E94F406A59F900DB49F92
:100E1000900DA49F800D911D11240895EE0FFF1FCA
:0C0E20000590F491E02D0994F894FFCFA8
:100E2C000100000001200000000000A5038C054B10
:080E3C000378035D039A030033
:00000001FF
